:020000040000FA
:1000000002006000000080FB120090B900030200B3
:100010004AE4900200782179018002F0A3D8FCD94B
:10002000FA900220AA82AB8390009378D479098059
:1000300015E493A3AC82AD838A828B83F0A3AA825A
:10004000AB838C828D83D8E9D9E775829375832A37
:1000500074001200727582037583007400120072BE
:1000600075D00075813F751000751102759F0002F3
:100070000008C09FF59FE473D09F22D083D082C038
:100080009FE493C0E0740193C0E0740293F59F2253
:1000900079012241445465737452656164203D20A6
:1000A000256443000A002030F8EC676FFCF810F874
:1000B000F800FEFE000000003F7F60666773300FAF
:1000C0000F607F3F0000000000FE929292FE92922D
:1000D0009292FE000000203800003C4040424C401C
:1000E0004070041830004041C60000F2525256FAE7
:1000F0005A56F200000040201F20405F4242425FFB
:100100004A524F404000804030FC070AA8A8A9AEE0
:10011000AAA8A80808000000007F00007E22222272
:1001200022227E00000020202424A4643C272424D2
:10013000A424242020000000000001010911294509
:100140000301000000000010608000FF000000FFBD
:1001500000806038100020202023213F2020203FF5
:1001600022212030200000404242424242FEC24250
:1001700042424242400040402010080403003F40F9
:10018000404040407000406058C76200909090FF2F
:1001900090929C948000202223121212202010138F
:1001A0000C142240F80080828282FE828282828247
:1001B000FE8282828000008040300F00000000003C
:1001C000FF00000000000000181610D0B8979090B3
:1001D0009092941000000020108C838041462810DB
:1001E0002844438080001010D0FF901000FC24E4CD
:1001F000242223E20000040300FF0083601F8041EB
:1002000026182641800000083000FF20202020FF13
:100210002020222C200004040201FF8040300E0127
:10022000061820408000000484844424548F142441
:10023000448484040000413900003C4040424C406A
:1002400040700409310000000000000000000000C0
:100250000000000000000000363600000000000032
:100260000000000000000004047454545556545417
:10027000547404040000848341211D05050505050F
:100280007D818185E30002028272020202FE020287
:1002900082423202020080814020100C0300030CD5
:1002A000102040808000101010FF9020988888E96E
:1002B0008E8888A898000242817F000080844B28A5
:1002C000102847800000020202020202FE020242DF
:1002D000820202020200000000000000FF00000095
:1002E00000010600000002E222223E0000F94A4C12
:1002F000F84C4AF90000004382423E0010131212EB
:10030000FF121213100040484848FF484800C444F8
:100310004444FC00000080601F207F4444404F5054
:100320005050505C40000000000000000000000041
:10033000000000000000000000F8000000000000C5
:1003400000333000000000100C06100C0600000006
:1003500000000000000040C07840C0784000043F2A
:1003600004043F040400007088FC083000000018FA
:1003700020FF211E0000F008F000E018000000211E
:100380001C031E211E0000F00888700000001E21C2
:1003900023241927211010160E0000000000000071
:1003A000000000000000000000E01804020000004F
:1003B00000071820400000020418E0000000004080
:1003C000201807000000404080F0804040000202FA
:1003D000010F01020200000000F000000000010116
:1003E000011F01010100000000000000000080B0BA
:1003F000700000000000000000000000000000018C
:1004000001010101010100000000000000000030B6
:100410003000000000000000000080601804006050
:1004200018060100000000E010080810E000000FAE
:10043000102020100F00001010F800000000002015
:10044000203F20200000007008080888700000305D
:100450002824222130000030088888483000001805
:10046000202020110E000000C02010F8000000071E
:100470000424243F240000F8088888080800001994
:10048000212020110E0000E0108888180000000FC5
:10049000112020110E0000380808C838080000009C
:1004A000003F000000000070880808887000001CF1
:1004B000222121221C0000E010080810E0000000AA
:1004C000312222110F00000000C0C0000000000017
:1004D000003030000000000000800000000000003C
:1004E0008060000000000000804020100800000133
:1004F00002040810200040404040404040000404F6
:1005000004040404040000081020408000000020BF
:10051000100804020100007048080808F0000000FC
:10052000003036010000C030C828E810E00007188D
:10053000272423140B000000C038E0000000203CFA
:1005400023020227382008F8888888700000203F9E
:10055000202020110E00C0300808080838000718B5
:1005600020202010080008F808080810E000203FAC
:10057000202020100F0008F88888E8081000203F8D
:1005800020202320180008F88888E8081000203F61
:10059000200003000000C0300808083800000718D9
:1005A0002020221E020008F808000008F808203F5A
:1005B000210101213F20000808F808080000002060
:1005C000203F2020000000000808F8080800C08034
:1005D00080807F00000008F888C028180800203FAD
:1005E00020012638200008F8080000000000203F05
:1005F00020202020300008F8F800F8F80800203FFC
:10060000003F003F200008F830C00008F808203FF5
:10061000200007183F00E01008080810E0000F1045
:10062000202020100F0008F808080808F000203FDC
:10063000210101010000E01008080810E0000F1877
:10064000242438504F0008F8888888887000203F9C
:100650002000030C3020007088080808380000389B
:10066000202121221C00180808F8080818000000A2
:10067000203F2000000008F808000008F808001FCC
:10068000202020201F000878880000C838080000BB
:1006900007380E010000F80800F80008F800033CD5
:1006A0000700073C0300081868808068180820309D
:1006B0002C03032C30200838C800C838080000007C
:1006C000203F2000000010080808C8380800203823
:1006D000262120201800000000FE02020200000077
:1006E000007F40404000000C30C0000000000000CF
:1006F00000010638C00000020202FE0000000040B7
:1007000040407F00000000000402020204000000DC
:1007100000000000000000000000000000008080D9
:1007200080808080808000020204000000000000C1
:1007300000000000000000008080808000000019A0
:10074000242222223F2008F8008080000000003F81
:10075000112020110E000000008080800000000E9B
:10076000112020201100000000808088F800000E79
:10077000112020103F200000808080800000001F9A
:10078000222222221300008080F08888881800200E
:10079000203F202000000000808080808000006BCF
:1007A00094949493600008F8008080800000203FBB
:1007B000210000203F2000809898000000000020C9
:1007C000203F20200000000000809898000000C01A
:1007D0008080807F000008F8000080808000203F3B
:1007E00024022D302000000808F80000000000203E
:1007F000203F202000008080808080808000203F7B
:1008000020003F20003F8080008080800000203F4B
:10081000210000203F200000808080800000001F19
:10082000202020201F00808000808000000080FFAA
:10083000A12020110E000000008080808000000EAA
:10084000112020A0FF8080808000808080002020F8
:100850003F21200001000000808080808000003364
:10086000242424241900008080E0808000000000FF
:10087000001F202000008080000000808000001FFA
:10088000202020103F208080800000808080000198
:100890000E300806010080800080008080800F30CC
:1008A0000C030C300F00008080008080800000204E
:1008B000312E0E3120008080800000808080808179
:1008C0008E701806010000808080808080000021EA
:1008D000302C2221300000000000807C0202000049
:1008E0000000003F404000000000FF00000000004A
:1008F0000000FF0000000002027C800000000040B9
:10090000403F000000000006010102020404000054
:1009100000000000000030313233343536373839CA
:1009200041424344454600286E756C6C20706F69E7
:100930006E74657229003F3F3F000000807F000019
:10094000803F00000000F9021550B743BA51000083
:10095000204100E7DB2E0000A0401000000008004E
:1009600000000A00000012007B28250012007B34E2
:10097000250012007B51250012007B8B2500120000
:100980007B51260012007B76260012007B9D2600FC
:1009900012007BC4260012007BEC260012007B288C
:1009A000270012007B5E270012007B1A280012002D
:1009B0007B0F290012007B98290012007BFE290082
:1009C00012007B202A0012007B332C0012007B9344
:1009D0002B0012007BBD2B0012007B602C0012004C
:1009E0007BD9140012007BF71900C008C3E096F50C
:1009F0000808A3E096420808A3E096420808A3E08E
:100A0000964208A2D265D033E5087001D3D00822FF
:100A1000080808E630E71112124C120A28080808E4
:100A2000C64480C618181822181818E9799EC608F6
:100A3000CAC608CBC608CCC6C370207996CACBCC30
:100A40007019798ECBCC70137986CC700EF9802A10
:100A5000CA33CACB33CBCC33CC331930E7F2CCCB4F
:100A6000CA3350147004EA30E00DE4CA3ACACB3BF2
:100A7000CBCC3CCC500209C3E913C6CC182313C617
:100A8000CB18C6CA18C6F922120AC820F01430E7DB
:100A90002B74FFFCFBFA747F8022E4FCFBFA748069
:100AA000801AB48008BC00F2BB00EF800F50EBF955
:100AB000E4C39AFAE49BFBE49CFCE499C6CC18C618
:100AC000CB18C6CA18C6F922E4C9C608CAC608CBDC
:100AD000C6D3330308CCC63392F0C3947F402E9420
:100AE000184019C9B90704CACBCC225025C309CA7A
:100AF00033CACB33CBCC33CC33D9F422F4600DC919
:100B0000CCC313CB13CBCA13CAD9F6CC22E4FCFB5B
:100B1000FA2214FCFBFA22E6C3331846184618469C
:100B200022E7C33319471947194722181818E6084E
:100B30004608700AE608C3337005E633F42208223B
:100B4000191919E7094709700AE709C3337005E75E
:100B500033F4220922E6084608C31346083360022C
:100B6000E633F422E7094709C3134709336002E774
:100B700033F422120B556025120B646020120B1700
:100B80007003020B21080808E76670101819E76661
:100B9000700A1819E76670041819E76622F4221221
:100BA0000B55601C120B646017120B177007120BA9
:100BB000217001D322C0D0120B217006D0D0B322F5
:100BC000C32233D0D0501430E0F6C3E7960809E7CB
:100BD000960809E7960809E796B32220E0D5E6973C
:100BE0000809E6970809E6970809E697B322120B69
:100BF00055601B120B646016120B177007120B2145
:100C0000600CB322C0D0120B217005D0D022C322B9
:100C100033D0D0501330E0EBC3E7960809E79608CD
:100C200009E7960809E7962220E0E4E6970809E636
:100C3000970809E6970809E6972200120B55604FBE
:100C4000120B646012E7548066F6120B2B701112BF
:100C50000B21703B090909F4F618F618F618F6226C
:100C6000120B407015120B1708080860EAE6447F63
:100C7000F618768018E4F618F622120B1760161292
:100C80000B217012E4F608F608F608E65480F6091F
:100C9000090918181822EAC0E0EBC0E0ECC0E0ED4A
:100CA000C0E0E687F0A4FBACF008E687F0A42CFCDB
:100CB000E435F0FA1809E687F0A42C4B60027401C1
:100CC000CA35F0FCE433FB09E687F0D2F7A42CCB5D
:100CD00035F0FC1908E687F0A42BCC35F0FBE433A3
:100CE000FD0819E687F0D2E7A42C4ACB35F0CD34C5
:100CF00000FC09E687F0D2E7A42DCC35F0FDE43303
:100D0000FA0918E687F0D2F7A42CCD35F0CA3400E2
:100D1000FC08E687F0D2E7D2F7A42ACC35F07A7E39
:100D200020E70B0ACB33CBCD33CDCC33CC33CB3315
:100D300050147004ED30E00ED2F1E4CD3DCDCC3C4A
:100D4000CC3B5005DA05C2F1EB547FC63308E633DD
:100D500092F0FBE73309E733C39A502D2B70190C3F
:100D60000D4C4D70151806E608C333700D20F10ABE
:100D7000A2F013F6E418800B4024E4F630F002767B
:100D80008018F618F618F68024D33B14501074FF20
:100D9000A2F013F6187680E418F618F6800FA2F089
:100DA00013F618E63303F618ECF618EDF6D0E0FD6E
:100DB000D0E0FCD0E0FBD0E0FA22120B64604612D7
:100DC0000B55603DE9687008F618F618F618F6221B
:100DD000748067F7120DEE090909748067F7221213
:100DE0000B55601D120B647005191919801A120B2E
:100DF0002B701F120B40C37003E66733191919409B
:100E0000071818182208080874FFF618F618F618BC
:100E1000F622120B406017120B21702192F0120B78
:100E2000177019501720F014080808090909E7F687
:100E30001819E7F61819E7F61819E7F622120B1732
:100E400060E6E869701F0808E62480F608E436F6D4
:100E500018547FB47F0CE654806007F6E418F61847
:100E6000F622181822E9C6CC08C6CD08C6CE08C698
:100E7000CFC0E0E8C0E0EAC0E0EBC0E009E9F80973
:100E8000E7FA09E7FBE6F918E6F8C3EC98ED99EE06
:100E90009AEBC2E7F5F0EFC2E795F0500E600CEB6D
:100EA000CFFBEACEFAE9CDF9E8CCF8EAA2E7D2E73F
:100EB000FAEB33FB13F5F0EEA2E7D2E7FEEF33FFD8
:100EC000C5F013A2E730E601B313C5F0C3C0E0C01C
:100ED000F07F00C39BFB605B9418600C401AD0E06D
:100EE00023F9D0E0F8020FBD8AF0E9486003D2F0A0
:100EF000E4AFF0FAF9F8803BEB30E40D89F0EA60FA
:100F000003D2F0E4AFF0F9CAF8EB30E30D88F0EF6C
:100F10006002D2F0AFF0E4CAC9F8EB54076014FBEA
:100F2000C3EA13FAE913F9E813F8EF135002D2E019
:100F3000FFDBEDD0E0C0E030E739C3E49FFFF5F020
:100F4000EC98FC42F0ED99FD42F0EE9AFE42F0D0B2
:100F5000E0F9D0E0F8E5F0607AE923F9EE20E74225
:100F6000D8028067C3EF33FFEC33FCED33FDEE3383
:100F7000FE80EAEC28FCED39FDEE3AFED0E023F9E4
:100F8000D0E0F84002801BC3EE13FEED13FDEC131E
:100F9000FCEF135002D2E0FF08B800067F7F74FF19
:100FA000802EEF3350178CF020F00260100CBC0044
:100FB0000C0DBD00080EBE000408E860DFE933E850
:100FC00013FFEE2313FE4F4D4C8008E95480FFE4DD
:100FD000FEFDFCEE33EF33F47004FCFD7E80D0E0C8
:100FE000FBD0E0FAD0E0F8D0E0CFC618CEC618CDDE
:100FF000C618CCC6F922120B557004181818221204
:101000000B64700D74FFF61819F61819F61819F616
:1010100022E7548066F6120B17700F120B2170F046
:1010200014F608F608F608F680D1120B21700CF6BB
:1010300008F608768008E6447F80EC120B43700CBB
:10104000120B2E60BFE65480F6E480BB120B2E70AC
:101050000519191980A5E869700C763F1876801873
:10106000F618F6E8F922E6CDC0E018ECC0E0E63369
:10107000CD33CDD313F6E719FCE7191933CC33C3BD
:10108000947F400ECD9D502408E65480F6E418F677
:10109000800FF4043D14501408E6447FF61876805F
:1010A000E418F618F6D0E0FCD0E0FD22CCD313CC47
:1010B000FD18E4C6CBC0E018E4C6CAC0E00808EDDD
:1010C00008C633E613F618E433C675F003C3CA97AF
:1010D000CA09CB97CB199C40047D08802EBD000324
:1010E00002119F16B6FF050606081618C3CA33CAB2
:1010F000CB33CB33CA27CA09CB37CB193CC37D08C6
:10110000803E187D0820E75CC633C6CA33CACB339D
:10111000CB33DDF1D5F0EB30E77BCA97CA09CB972B
:101120004ACB199C406F4B7025E620E02180661861
:101130007D08C3CA97CA09CB97CB199CD3C633C6BF
:10114000CA33CACB33CB3350C9DDE7D5F0E1D3E4A2
:10115000C636C608C636C608C636C608C636C61857
:1011600018188031C3CA97CA09CB97CB199CB340D2
:1011700097C633C6CA33CACB33CB33DD34D5F02E52
:10118000C6A2E0C640C8CA27CA09CB37194A70BEF2
:10119000CB3CB480B90808E63308E633601F181862
:1011A00018D0E0FAD0E0FBD0E0FCD0E0FD22187DC2
:1011B00008CA27CA09CB37CB193CD3808013F6184D
:1011C000E4B67F11F618B6FF0EF618C60470D20802
:1011D00008768080CAF618F618F680C5E4CFC0E01D
:1011E000E4CEC0E0E4CDC0E0E4CCC0E075F020C3C4
:1011F000E633F608E633F608E633F608E633F61883
:101200001818EC33FCED33FDEE33FEEF33FFC3EC87
:101210009709ED9709EE9709EF97191919400FFFF4
:10122000EC97FC09ED97FD09EE97FE191906D5F02C
:10123000BEECF709EDF709EEF709EFF7191919D028
:10124000E0FCD0E0FDD0E0FED0E0FF22181818E46A
:10125000C396F608E496F608E496F608E496F622B5
:10126000E0F608A3E0F608A3E0F608A3E0F622E61D
:10127000F008A3E6F008A3E6F008A3E6F022E0FAFF
:10128000A3E0FBA3E0FCA3E0FD22EAF0A3EBF0A3C4
:10129000ECF0A3EDF022CAC0E0E6F0A308DAFAD041
:1012A000E0FA22CAC0E0E0A3C582CCC582C583CDE6
:1012B000C583F0A3C582CCC582C583CDC583DAE6DC
:1012C000D0E0CA22C3E498F8E499F9121305802605
:1012D000C3E49AFAE49BFBE920E7E9121305E498DA
:1012E000F8E499F922C3E498F8E499F9121305E4B3
:1012F00098F8E499F9C3E49AFAE49BFB22EB20E71F
:10130000CFE920E7E0B90010BB0008E88AF084F8D4
:10131000AAF022E4FBC8FA22EB70227B10C833C883
:10132000C933C9335007C39AC3DBF280069A500110
:101330002ADBEAC833F4C8C933F4C9FA2275F008C5
:10134000E4C833C8C933C933C99AC99B5004C92AF0
:10135000C93BD5F0ECFBC833F4C8E4C9FA22600DF0
:1013600008C6A2E713C618C613C6D5E0F322600C60
:1013700008C6C313C618C613C6D5E0F422700422EB
:10138000600D18C6C333C608C633C6D5E0F41822AC
:10139000251010AF08F510400215118008F5104017
:1013A000021511D2AF22C0D0251010AF08F5105091
:1013B0000205118008F51050020511D2AFD0D022DD
:1013C0002510F58210AF08F510400215118008F5C0
:1013D0001040021511D2AF851183222510F582E449
:1013E0003511F58322E4732510C582C0E0E5113480
:1013F000FFC583C0E0E510C3958224F810AF0885CF
:1014000083118582108008858311858210D2AFCE2A
:10141000F0A3E520F0A37808E608F0A3DEFAEFF0E9
:10142000A3E58124FAF8E608F0A3E608F0A3E608AD
:10143000F0A30808E608F0A3E608F0A315811581DB
:10144000D0E0FED0E0F8158115811581E8C0E0EE0E
:10145000C0E022851183851082E0A3FEE0A3F52081
:101460007808E0A3F608DFFAE0A3FFE0A3C0E0E01D
:10147000A3C0E0E0A3C0E0E0A3C0E0E0A3C0E010B0
:10148000AF088582108583118008858210858311BD
:10149000D2AFD083D082020078740280027401C07F
:1014A000E0F4041213C0D0E01212962274028000FD
:1014B000CCC0E0EDC0E0E510C39CCCAD1150011DE7
:1014C00010AF068C108D1180068C108D11D2AF12CA
:1014D00012A3D0E0FDD0E0FC2274F01213E774FDFB
:1014E00012139074021213DBE9F08A088B098C0A3C
:1014F0008D0B74151213DBE0FEA3E0FF85108285CF
:101500001183E4F0A3F08E828F83A3AA82AB839031
:101510000AC7780C1212607808790C120B737018D5
:101520008E828F8374691219B8746EF0A37466F09A
:10153000A30A0AAB8302195378087908120B736067
:10154000118E828F83746E1219B87461F0A3746E59
:1015500080DD900ACB780C1212607808790C120B9F
:101560009F5003021603900ACF780C12126078087D
:10157000790C120B73600302165774171213DBE019
:101580007003021699851082851183C082C083740E
:10159000131213DB1223F6D083D082121991502C30
:1015A000851082851183C3E094FCA3E094FFA2D24E
:1015B00065D033401774021213DBE41224CAF974A5
:1015C000131213DBC3E098F0A3E099F07413121325
:1015D000DB1219AE74181213DBE070030216967456
:1015E000171213DBE4021698900AD3780C121260DB
:1015F0007808790C120FF6851082851183E0240A91
:10160000122507900AD7780C1212607808790C120C
:101610000B9F40D4900ADB780C1212607808790C8A
:10162000120B9F400302157A900ADB780C121260AD
:101630007808790C120FF61224FE80D8900AD3781D
:101640000C1212607808790C120C3A851082851100
:1016500083E024F61219B1900ADF780C1212607838
:1016600008790C120BEE40D4900ACB780C12126061
:101670007808790C120BEE400302157A900ADB7899
:101680000C1212607808790C120C3A8510828511C0
:10169000831219AE80D27401F074021213DBE06081
:1016A000077A007B000217A512199D507D8E828F4C
:1016B000837430F0EAFEEBFF74131213DBE0FCA33B
:1016C000E0FDEC4D700874181213DBE0600B8E82A5
:1016D0008F83742EF0A30EAF837A007B0080118E6F
:1016E000828F8374301219D974131213DB1219AE5E
:1016F000EA24FF1AEB34FFFB85108285118312194F
:1017000085500B74131213DB1223FA4970D1851024
:101710008285118374FFC39CF874FF9DF91219919F
:1017200050030218737A010216A385108285118373
:101730001223F6C3E498FAE499FB806985080C85C6
:10174000090D850A0E850B0F780C120A88AC0CE582
:101750000D3395E0F50EF50F780C120A1078087924
:101760000C120DBA900ADB780C1212607808790C12
:10177000120C3AEC1219D3EAF8EBF9E824010AE961
:101780003400FBE849701E74131213DB1223FA496C
:10179000700874181213DBE0600B8E828F83742E36
:1017A000F0A30EAF8374131213DB121985508D90C2
:1017B0000AE3780C1212607808790C120B9F400330
:1017C0000218737C01EE24FFF8EF34FFF974151250
:1017D00013DBE0F508A3E0F50988828983E0642E35
:1017E0006010E02CF0643A70077430F07C018002E5
:1017F0007C00E8FAE9FBEA24FF18EB34FFF9C3E5C3
:10180000089AE5099B40D2ECA2E0506774021213DB
:10181000DBE06036EEF8EF800A121970E824FF185A
:10182000E934FFF9C3E50898E50999501812195DE4
:10183000E0642E70E4E824FEF582E934FFF58312BB
:10184000196AF980D71224FE801E8E828F83A3AE80
:1018500082AF83EEF8EF800612195D12196AF9C3A0
:10186000E50898E5099940F074151213DB12241568
:101870007431F074171213DBE07005801A1EAF8309
:10188000EE24FFF582EF34FFF583E0643060EEE094
:10189000642E70031EAF8374021213DBE070030228
:1018A000194F1219D5A3A98312199D8E828F8350C7
:1018B00014742DF00EE9FF85108285118312243EE9
:1018C0001219C68006742BF00EE9FF7C007D00EE35
:1018D000240AFEEF3400FFEC24010CED3400FD126D
:1018E00019771212FDEA1219D31219771212FD128A
:1018F00019E04970E2C3EC9402ED1223A740D8EC42
:10190000FAEDFBC3E49CF8E49DF9EE28F582EF398B
:10191000F583E0C0E0C3E49AF8E49BF9EE28F8EF21
:1019200039F9E82CF8E93DF9E824F5F582E934FFC6
:10193000F583D0E0F0EC24FF1CED34FFFDC3EC9404
:1019400001ED1223A750BCEE24F6FEEF34FFFFEEAC
:10195000FAEFFB74031213A67F08021453E824FF66
:10196000FAE934FFFB8A828B832212197018EB226A
:10197000E088828983F02285108285118312244BAE
:101980007A0A7B0022C3E09AA3E09BA2D265D033FF
:1019900022C3E098A3E099A2D265D03322851082B9
:1019A000851183C3A3E09400A2D265D03322E02442
:1019B000FFF0A3E034FFF022F0EAFEEBFF8E828F0F
:1019C0008322A3E03400F9851082851183E8F0A317
:1019D000E9F02224308E828F83F0A3AE82AF83227F
:1019E0008510828511831219EA22E8F0A3E9F085B7
:1019F0001082851183E02274F01213E774B0121381
:101A0000908510828511831224B074181213DBECB8
:101A1000F0A3EDF0740F1213DBE4F0A380227460E6
:101A20001213DB1223E674041213DBE0F9741812AC
:101A300013DB1224151213E5740F1213DB1223AFFC
:101A4000F0122429FA1224E91213DBEAF074256A51
:101A50006010E070C9740F1213DB1223E674500299
:101A6000195512242964257019851082851183E087
:101A70002401081219C274601213DB1223E67925BF
:101A800080AB740E1213DBE4F0740D1213DBE4F080
:101A9000740C1213DBE4F074051213DBE4F0741E13
:101AA0001213DBA882A98374021213DB801574055C
:101AB0001213DBE0700774051213DBEAF085108265
:101AC0008511831219E61223DD122470FA24E060D6
:101AD000DD24FD601724F860DD24FE600624FD602F
:101AE0000F8011740C1213DBE00480D0740D80F5AC
:101AF000740E80F1122470642A705B74621213DB1E
:101B000012247BFB8A828B83E0FCA3E0FD740A1223
:101B100013DBECF0A3EDF0EA24020A0AEB3400FB3D
:101B200074621213DB1224A8740A1213DB1219A3B5
:101B3000501F740A1213DB1223E6C3E49AFAE49BE3
:101B4000FB740A1213DB1224B0740C1213DBE004D2
:101B5000F01219C7804A740A1213DBE4F0A3802D37
:101B6000740A1213DB1223FA75F00AA4F8AAF075AE
:101B7000F00AE9A42AF9E50828F8E439F9E824D0BC
:101B8000F8E934FFF9740A1213DB12250E1224CA85
:101B9000F5838882E0F50874D02508C3940A40C014
:101BA000740C1213DBE06007740E1213DBE4F01206
:101BB0002429642E6003021C42851082851183E073
:101BC000240108A3E03400F91219E012241AE06499
:101BD0002A702C74621213DB12242FF8A3E0F98808
:101BE000828983E0FEA3E0FFE824020808E93400CC
:101BF000F974621213DB12246312250EF080477E03
:101C0000007F0085108285118312243874D0250846
:101C1000C3940A5031EE75F00AA4FEA8F075F00ADC
:101C2000EFA428FFE5082EF8E43FF9E824D0FEE908
:101C300034FFFF851082851183E02401F81219C258
:101C400080C17EFF7FFF7A00851082851183122379
:101C5000D8851082851183E0FBA3E0F5838B82E0B9
:101C600024B4600824E4600524FC70040A1219C737
:101C7000122429FB1224E91213DBEBF07003022279
:101C80004D24BB700302211324FE70030220F524AF
:101C9000EF7003021E3F24F57003021D441470030D
:101CA000021EE414700302211314700302211114A4
:101CB00070030220F524FE7003021EE424FB60245E
:101CC000147003021E2F147003021E3F24FD7003C4
:101CD000021D7D24FE7003021E3F24FD7003021EC0
:101CE0003F02225974621213DB1224A21213DB1278
:101CF00019CDEAA2E0740F50331213DBE0FCA3E02D
:101D0000FD3395E0FE74061213DB122483ECF0A37E
:101D1000EDF0A3EEF0A3F074621213DB12248A122A
:101D200013DB122463E8F0A3E9021A401213DB125A
:101D300023F674061213DB12247BF5838A82E8F003
:101D4000A3E980D274621213DB122483E0C0E07432
:101D50001E1213DBD0E0F074621213DB12248A121D
:101D600013DB1224631219CD741F1213DBA882A98E
:101D70008374121213DBE8F0A3E90222707462127A
:101D800013DB1224A21213DB1219CD74061213DB1B
:101D90001224A21213DBE02402FAA3E03400FB7445
:101DA000621213DB1224A874021213DB1219CDE89D
:101DB00049700C74021213DB74B4F0A3740AF012AD
:101DC00023A550047E107F2774081213DBE4F0A3D0
:101DD000800874081213DB1223AFF074021213DBB5
:101DE0001223F688828983A3AA82AB83740212131A
:101DF000DB1224B088828983E0600A74081213DB46
:101E00001223FF40CD74021213DB1223C674121288
:101E100013DB1219CD74081213DB12243EF974126D
:101E20001213DBE028F8A3E039F97402021D737481
:101E30000D1213DBE06008EE4F70047E017F00742A
:101E4000621213DB1224A21213DB1224F61213DB2C
:101E5000E06470703874061213DB1224981213DBDE
:101E60001224D11213DBE0240212245A1213DB12C3
:101E700024631219CD900AE712127E741A1213DB32
:101E800012128A74051213DBE4F0021F74EAA2E056
:101E90007406501B1213DB12241512127E741412D6
:101EA00013DB12128A74061213DBE0240480121270
:101EB00013DB1224981213DB1224D11213DBE0245B
:101EC0000212245A1213DB1224631224F61213DBBB
:101ED000E0646F7005900AEB809EE06475709690E8
:101EE0000AEF809474621213DB1224A21213DB1225
:101EF00019CDEAA2E0740650161213DB12241578ED
:101F00000812126074061213DBE02404F8801B121E
:101F100013DB122438A3E0F5093395E0F50AF50B3D
:101F200074061213DBE02402080812245B1213DB90
:101F30001224DE1213DB780812126F900ACF780891
:101F40001209EA402174051213DB742DF074141287
:101F500013DB7808121260780812124F74141213EF
:101F6000DB780812126F900AEF12127E741A1213A5
:101F7000DB12128A744F1213DBA882A98374021237
:101F800013DB1219CD74121213DB1224E11213DBCE
:101F90007808121260E5084509450A450B60097486
:101FA000111213DB7401800674111213DBE4F0EEDE
:101FB0004F7008E0A2E0400302206874021213DBB5
:101FC00012240F1213DB1224E11213DB780C12120D
:101FD00060741A1213DB7808121260780C790812F8
:101FE00011DC74A32508F582740A3509F583E0C075
:101FF000E074021213DB122415D0E0F074141213F3
:10200000DB780C121260741A1213DB78081212605B
:10201000780C79081211DC74141213DB780C12128C
:102020006F74141213DB7808121260E50845094535
:102030000A450B70861223A5502E740E1213DBE096
:10204000602674051213DBE06004D2F08002C2F057
:10205000740A1213DB1223B8800E74021213DB12FF
:1020600024C21213DB12242274021213DB1223C6C1
:10207000744F1213DBC082C08374021213DB12236D
:10208000E6D083D082E582C39AFAE5839BFBC3EA5C
:102090009EEB12240840C3740D1213DBE0700302A0
:1020A000227174111213DBE0A2E04003022271746A
:1020B000041213DBE064786005E06458701E1219A6
:1020C00070E824FF18E934FFF974021213DB1224BC
:1020D000C21213DB1224157430022270E0646F60A8
:1020E0000302227174021213DB122476643070032F
:1020F00002227180D474081213DB7401F0A3E4F09F
:1021000074041213DBE024FEF0EE4F700F7E0180AA
:1021100012E4F074081213DBE4F0A3F01223A550CC
:10212000047E067F0074621213DB1224A21213DBFA
:102130001219CD74061213DB122415780C121260DA
:1021400074061213DBE0240412245A1213DB122447
:10215000DE1213DB780C12126F900ACF780812127D
:1021600060780C7908120BEE502274051213DB74A0
:102170002DF074141213DB7808121260E50BB2E72D
:10218000F50B74141213DB780812126F740A121311
:10219000DB1223F6741E1213DBE58228F8E583397F
:1021A000F974021213DB1219CD740D1213DBE0F572
:1021B00008780812149D74091213DBE0F5087808FA
:1021C00012149D74041213DB1214AC8E088F09785C
:1021D00008121499740A1213DBE0F9741A1213DB53
:1021E00012127E1209DE74061213A674121213DB89
:1021F0001224B0740E1213DBE0607674051213DB48
:10220000E06004D2F08002C2F0740A1213DB1223E1
:10221000B874121213DBC082C08374021213DB1273
:1022200023F6D083D082E0C398F8A3E099F9C3E8FD
:102230009EE9122408503A74021213DB12240F1282
:1022400013DB1224C21213DB12242280C4851082F5
:102250008511831223CF1219C674021213DB74C3C3
:10226000F0A3740AF074121213DB74C6F0A3740A9C
:10227000F074121213DBC082C08374021213DB12DB
:1022800023F6D083D082E0C398FEA3E099FF740ABE
:102290001213DB1223FF500A74081213DBE4F0A3BD
:1022A000803074051213DBE06004D2F08002C2F0CB
:1022B000740A1213DBE0C39EF8A3E09FF9A2F0E4D6
:1022C00033FAE89AF8E99400F974081213DBE8F09D
:1022D000A3E9F0740C1213DBE0702B801974601208
:1022E00013DB1223EC1213DB1224151213E5740F07
:1022F0001213DB12250474081213DB1224B6121316
:10230000DB1219A350D774051213DBE06050746020
:102310001213DB1223E674051213DBE0F9741812B2
:1023200013DB1224151213E5802C74601213DB12D8
:1023300023E674021213DB12242FF974181213DB34
:102340001224151213E574021213DB1223D874023F
:102350001213DB1219CD740F1213DB122504EE24B5
:10236000FF1EEF34FFFFC31223A750BE740C1213DD
:10237000DBE07003021A4174081213DB1224B61258
:1023800013DB1219A35003021A4174601213DB12FB
:1023900023EC1213DB1224151213E5740F1213DB56
:1023A00012250480D2C3EF9400A2D265D03322E07C
:1023B0002401F0A3E0340022A2F0E433F8E098FE18
:1023C000A3E09400FF221223CA221223CFF922E0B5
:1023D00024FFF8A3E034FF22E01223DD222401F8D9
:1023E000A3E03400F922E0FAA3E0FB22E0FAA3E044
:1023F000FB792074182212244B2212244BE822C3AA
:10240000E09EA3E0122408229FA2D265D0332212BC
:1024100023CA74022212241922E0F8A3E0F583886B
:1024200082221224197430F02285108285118312C1
:10243000243322122451E022122433F508221224DC
:102440004BC3E498F8E49922122451E0F8A3E0F990
:1024500022E0F8A3E0F583888222F8A3E03400F9B3
:1024600074622212246722E0FAA3E0F5838A8222B2
:10247000851082851183122467E022122467E0FA16
:10248000A3E02212243312241A221224332402F845
:10249000A3E03400F9746222122448E8FAE9FB74DC
:1024A0001422122448740622E0FCA3E0F5838C82F7
:1024B000EAF0A3EBF022E024FFF0A3E034FFF07495
:1024C0000822E8F0A3E9F07402221219EEF8A3E062
:1024D00022EAF0A3EBF0A3E4F0A3F07406221224A6
:1024E00067E8F0A3E9F0741422851082851183E077
:1024F00024010812251CE8F0A3E9F07404228510D9
:1025000082851183E02401F0A3E03400F022121947
:10251000EA2401F812251CE8F0A3E922A3E0340024
:10252000F98510828511832275C628E59EA2E640B2
:10253000FA02007875F10075F30C53FF3F43868073
:1025400043C50843C23BD2E943864043A884020006
:102550007874F71213E778007900801E8A828B83E3
:10256000E0F5C18A828B83A3AA82AB83A2E950FCE7
:10257000C2E9E82401F8E93400F9C3E89CE99DA226
:10258000D265D03340D67F010214537C007D008099
:1025900017E82401F8E93400F9C3E89AE99B40F10F
:1025A000EC2401FCED3400FDC3EC940AED940040F2
:1025B0000302264E780079008008E82401F8E93407
:1025C00000F9C3E89AE99B40F1780079008008E8B7
:1025D0002401F8E93400F9C3E89AE99B40F1780056
:1025E00079008008E82401F8E93400F9C3E89AE9A1
:1025F0009B40F1780079008008E82401F8E9340074
:10260000F9C3E89AE99B40F1780079008008E82452
:1026100001F8E93400F9C3E89AE99B40F1780079C0
:10262000008008E82401F8E93400F9C3E89AE99B3E
:1026300040F1780079008008E82401F8E93400F9D5
:10264000C3E89AE99B40F1780079000225990200DD
:1026500078801C78087907E8FCE9FDEC24FFF8EDA8
:1026600034FFF9EC4D70F0EA24FFFAEB34FFFBEA9B
:102670004B70E002007878087400D28078008009FE
:10268000D293D292E9C333F908E8C39408500BC23D
:102690009274805970EAC29380E8020078780874D6
:1026A00000C28078008009D293D292E9C333F9083E
:1026B000E8C39408500BC29274805970EAC29380A8
:1026C000E802007874F71213E7E9FEEAFF74B02F0E
:1026D000F912098AEEC4540F4410F912098A740FD2
:1026E0005E4401F912098A7F0102145374F7121330
:1026F000E7E9FE750800800EEEF91209840FEFC3BA
:10270000948040F40508E508C39408501674B02579
:1027100008F912098A790112098A791012098A7F47
:102720000080DB7F0102145374F71213E77F0080EF
:102730000D79001209840EEEC3948040F40FEFC3AC
:102740009408501574B02FF912098A790112098A78
:10275000791012098A7E0080DE7F01021453C08244
:10276000C08353F3FE43FD0153F47343FE8CD292B6
:10277000C2977A327B0012097ED29779AE12098A0B
:10278000790012098A791012098A794012098A7926
:102790008112098A79CF12098A79A112098A79C826
:1027A00012098A79A612098A79A812098A793F1230
:1027B000098A79D312098A790012098A79D512090E
:1027C0008A798012098A79D912098A79F112098ADB
:1027D00079DA12098A791212098A79DB12098A795F
:1027E0004012098A792012098A790212098A798DA0
:1027F00012098A791412098A79A412098A79A6120F
:10280000098A79AF12098A79FF1209967A0079004C
:10281000120990D083D08202007874F01213E7E995
:10282000FEEAFF8C0E8D0F750C007508007509000F
:102830008047E50CA80C7900E875F010A4C8AAF050
:1028400075F000A42AFA75F010E9A42AF985080A9F
:10285000750B00E8250AF8E9350BF974BB28F582F9
:10286000740439F583E0F91209840508E508C39476
:102870000840BF74082EFE050985090A750B00E59E
:102880000E250AF582E50F350BF583E0607C85099E
:102890000A750B00E50E250AF582E50F350BF58369
:1028A000E024E0F50CEEC3947940037E000FEFFACC
:1028B000EEF9120990750800803AE50CA80C790031
:1028C000E875F010A4C8AAF075F000A42AFA75F013
:1028D00010E9A42AF985080A750B00E8250AF8E929
:1028E000350BF974B328F582740439F583E0F912D5
:1028F00009840508E508C3940840BF74012FFAEE67
:10290000F912099075080002286C7F0802145374AC
:10291000F41213E789088A0A8B0B750900E50BAEE0
:102920000B7F00EE75F020A4CEA8F075F000A4286F
:10293000F875F020EFA428FFAA0AA90812099075DB
:102940000900801974332EF58274023FF583E0F993
:10295000120984EE2401FEEF3400FF0509E509C3E6
:10296000941040E07401250AFAA90812099075092B
:1029700000801974332EF58274023FF583E0F9125A
:102980000984EE2401FEEF3400FF0509E509C39434
:102990001040E07F0402145374F71213E77E007FA7
:1029A000007E007F008017EEFB7A0075F010EE24A9
:1029B00002A4F91209AEEE2401FEEF3400FFC3EECB
:1029C0009404EF9400A2D265D03340DB7E007F00F8
:1029D0008019EE2404FB7A0275F010EEA42408F9A5
:1029E0001209AEEE2401FEEF3400FFC3EE9407EFB0
:1029F0009400A2D265D03340D97F01021453C08223
:102A0000C0837400F59AF5B8F5A812096690624B78
:102A10007401F09061BD7401F0D083D0820200781F
:102A200074F21213E775080075090079008040758B
:102A3000B63E43B43043B440E5B4A2E750FAE5BA39
:102A40001313543FF50A750B0085BB0C750D00740C
:102A500006780C12137DE50C450AF50AE50D450BC9
:102A6000F50BE508250AF508E509350BF50909E92F
:102A7000C3940440BA7402780812136E85080A855C
:102A8000090B7404780A12136EE50A24B1F97F0663
:102A900002145374E2121390900200C082C0838526
:102AA0001082851183AC82AD83D083D082741E12D4
:102AB00012A312096C1209BA1209A212099C120976
:102AC000B4022B841209C0E9F83395E0F990021E94
:102AD000E028F0A3E039F090021EE0F508A3E0F54D
:102AE000097401780812135E90021EE508F0A3E550
:102AF00009F00EEEC3944040CB75081E75090078AE
:102B0000081214997C007D0074021213DBAA82ABB8
:102B1000831209C674021213A690021EE0F8A3E005
:102B2000F9E8F5083395E0F50978081214997C2046
:102B30007D0274021213DBAA82AB831209D27402E3
:102B40001213A6851082851183AA82AB831209D83D
:102B5000EAFCEBFD851082851183AA82AB83120902
:102B6000727C017D007A317B0212097285108285A8
:102B70001183AC82AD837A0479001209A87A507B64
:102B8000C312097890021E7400F0A37400F07E0056
:102B9000022AF3C082C0838A828B83122C2AE9F036
:102BA0008A828B83E02401FCA3E03400FD8A828BBF
:102BB00083ECF0A3EDF0D083D08202007874F6129B
:102BC00013E774FC12139074021213DBEAF0A3EB08
:102BD000F0ECFAEDFB740E1213DBA882A9838510CA
:102BE00082851183E8F0A3E9F08510828511838541
:102BF0008208858309780812149974041213DB85FE
:102C0000820885830978081214997CCC7D09120901
:102C1000E474041213A674021213DB122C2AE4F0DB
:102C200074041213A67F02021453E0F8A3E0F583A4
:102C300088822274F71213E774091213DBE0F8A3F9
:102C4000E0F98A828B838003ECF0A3E8FEE9FFEED3
:102C500024FF18EF34FFF9EE4F70ED7F010214539B
:102C6000C082C0838A828B838001A3E070FCE582EE
:0E2C7000C39AFAE5839BFBD083D082020078E2
:040000050000006097
:00000001FF
