:020000040000FA
:030000000200BB40
:10005B00020B1900000080FB1200EBB90003020039
:10006B00A5E4900200780379018002F0A3D8FCD9B3
:10007B00FA900202AA82AB839000EE787579098020
:10008B0015E493A3AC82AD838A828B83F0A3AA82FF
:10009B00AB838C828D83D8E9D9E775826675830F24
:1000AB0074001200CD75825E75830074001200CD52
:1000BB0075D0007581BF751000751102759F000218
:1000CB000063C09FF59FE473D09F22D083D082C082
:1000DB009FE493C0E0740193C0E0740293F59F22F8
:1000EB0079012244313A002030F8EC676FFCF810AC
:1000FB00F8F800FEFE000000003F7F60666773307B
:10010B000F0F607F3F0000000000FE929292FE9264
:10011B00929292FE000000203800003C4040424C7E
:10012B00404070041830004041C60000F252525655
:10013B00FA5A56F200000040201F20405F42424214
:10014B005F4A524F404000804030FC070AA8A8A9E4
:10015B00AEAAA8A80808000000007F00007E22229B
:10016B002222227E00000020202424A4643C272489
:10017B0024A42424202000000000000101091129DF
:10018B00450301000000000010608000FF0000002C
:10019B00FF00806038100020202023213F202020EA
:1001AB003F22212030200000404242424242FEC208
:1001BB004242424242400040402010080403003FAC
:1001CB0040404040407000406058C76200909090A3
:1001DB00FF90929C94800020222312121220201058
:1001EB00130C142240F80080828282FE828282826B
:1001FB0082FE8282828000008040300F000000006F
:10020B0000FF00000000000000181610D0B89790F7
:10021B00909092941000000020108C83804146280F
:10022B00102844438080001010D0FF901000FC2455
:10023B00E4242223E20000040300FF0083601F80FC
:10024B004126182641800000083000FF2020202086
:10025B00FF2020222C200004040201FF8040300EDE
:10026B0001061820408000000484844424548F1419
:10027B0024448484040000413900003C4040424C3B
:10028B004040700409310000000000000000000035
:10029B0000000000000000000036360000000000E7
:1002AB000000000000000000040474545455565420
:1002BB0054547404040000848341211D0505050575
:1002CB00057D818185E30002028272020202FE0239
:1002DB000282423202020080814020100C03000394
:1002EB000C102040808000101010FF902098888800
:1002FB00E98E8888A898000242817F000080844B99
:10030B0028102847800000020202020202FE0202AD
:10031B0042820202020200000000000000FF000007
:10032B000000010600000002E222223E0000F94A12
:10033B004CF84C4AF90000004382423E0010131265
:10034B0012FF121213100040484848FF484800C4DF
:10035B00444444FC00000080601F207F4444404F15
:10036B00505050505C4000000000000000000000A6
:10037B0000000000000000000000F800000000007A
:10038B000000333000000000100C06100C060000BB
:10039B000000000000000040C07840C0784000041E
:1003AB003F04043F040400007088FC083000000088
:1003BB001820FF211E0000F008F000E018000000DC
:1003CB00211C031E211E0000F00888700000001E77
:1003DB002123241927211010160E00000000000005
:1003EB0000000000000000000000E0180402000004
:1003FB000000071820400000020418E00000000075
:10040B0040201807000000404080F0804040000270
:10041B0002010F01020200000000F00000000001C9
:10042B0001011F010101000000000000000000801D
:10043B00B070000000000000000000000000000091
:10044B00010101010101010000000000000000009A
:10045B003030000000000000000000806018040035
:10046B006018060100000000E010080810E0000012
:10047B000F102020100F00001010F80000000000DB
:10048B0020203F2020000000700808088870000022
:10049B0030282422213000003008888848300000A2
:1004AB0018202020110E000000C02010F8000000C2
:1004BB00070424243F240000F8088888080800005B
:1004CB0019212020110E0000E01088881800000070
:1004DB000F112020110E0000380808C83808000042
:1004EB0000003F00000000007088080888700000C2
:1004FB001C222121221C0000E010080810E0000043
:10050B0000312222110F00000000C0C000000000CB
:10051B0000003030000000000000800000000000F0
:10052B0000806000000000000080402010080000E8
:10053B0001020408102000404040404040400004AD
:10054B000404040404040000081020408000000090
:10055B0020100804020100007048080808F0000091
:10056B0000003036010000C030C828E810E000075A
:10057B0018272423140B000000C038E000000020D3
:10058B003C23020227382008F88888887000002056
:10059B003F202020110E00C0300808080838000743
:1005AB001820202010080008F808080810E0002088
:1005BB003F202020100F0008F88888E80810002042
:1005CB003F20202320180008F88888E80810002016
:1005DB003F200003000000C0300808083800000767
:1005EB00182020221E020008F808000008F8082036
:1005FB003F210101213F20000808F80808000000F6
:10060B0020203F2020000000000808F8080800C048
:10061B008080807F00000008F888C0281808002020
:10062B003F20012638200008F808000000000020B9
:10063B003F20202020300008F8F800F8F8080020B0
:10064B003F003F003F200008F830C00008F80820AA
:10065B003F200007183F00E01008080810E0000FCB
:10066B0010202020100F0008F808080808F00020C0
:10067B003F210101010000E01008080810E0000F05
:10068B0018242438504F0008F88888888870002078
:10069B003F2000030C302000708808080838000049
:1006AB0038202121221C00180808F808081800001F
:1006BB0000203F2000000008F808000008F80800A0
:1006CB001F202020201F000878880000C838080051
:1006DB000007380E010000F80800F80008F80003C6
:1006EB003C0700073C030008186880806818082046
:1006FB00302C03032C30200838C800C83808000001
:10070B0000203F2000000010080808C8380800200F
:10071B0038262120201800000000FE0202020000F3
:10072B0000007F40404000000C30C0000000000083
:10073B000000010638C00000020202FE00000000AB
:10074B004040407F00000000000402020204000051
:10075B00000000000000000000000000000000800E
:10076B0080808080808080000202040000000000F6
:10077B00000000000000000000808080800000006E
:10078B0019242222223F2008F8008080000000005C
:10079B003F112020110E000000008080800000001F
:1007AB000E112020201100000000808088F800002E
:1007BB000E112020103F2000008080808000000060
:1007CB001F222222221300008080F08888881800C4
:1007DB0020203F20200000000080808080800000CF
:1007EB006B94949493600008F80080808000002044
:1007FB003F210000203F200080989800000000005F
:10080B0020203F202000000000008098980000006E
:10081B00C08080807F000008F8000080808000206E
:10082B003F24022D302000000808F80000000000D3
:10083B0020203F202000008080808080808000204E
:10084B003F20003F20003F80800080808000002000
:10085B003F210000203F20000080808080000000AE
:10086B001F202020201F008080008080000000803F
:10087B00FFA12020110E000000008080808000006E
:10088B000E112020A0FF80808080008080800020BF
:10089B00203F21200001000000808080808000002C
:1008AB0033242424241900008080E0808000000081
:1008BB0000001F20200000808000000080800000CE
:1008CB001F202020103F208080800000808080002F
:1008DB00010E300806010080800080008080800FB0
:1008EB00300C030C300F00008080008080800000F3
:1008FB0020312E0E3120008080800000808080808F
:10090B00818E70180601000080808080808000003E
:10091B0021302C2221300000000000807C020200DC
:10092B00000000003F404000000000FF00000000FE
:10093B00000000FF0000000002027C8000000000AD
:10094B0040403F00000000000601010202040400C9
:10095B00000000000000001200D6600B001200D651
:10096B00850B001200D6AC0B001200D6D30B001275
:10097B0000D6FB0B001200D6370C001200D66D0C04
:10098B00001200D6290D001200D61E0E001200D642
:10099B00A70E001200D60D0F001200D6150F001275
:1009AB0000D6280F002510C582C0E0E51134FFC525
:1009BB0083C0E0E510C3958224F810AF088583113E
:1009CB008582108008858311858210D2AFCEF0A36B
:1009DB00E520F0A37808E608F0A3DEFAEFF0A3E534
:1009EB008124FAF8E608F0A3E608F0A3E608F0A3E2
:1009FB000808E608F0A3E608F0A315811581D0E0FE
:100A0B00FED0E0F8158115811581E8C0E0EEC0E05D
:100A1B0022851183851082E0A3FEE0A3F5207808E0
:100A2B00E0A3F608DFFAE0A3FFE0A3C0E0E0A3C079
:100A3B00E0E0A3C0E0E0A3C0E0E0A3C0E010AF089B
:100A4B008582108583118008858210858311D2AF32
:100A5B00D083D0820200D3C0D02510C582C0E0E580
:100A6B001134FFC583C0E0E510C3958224F310AFAA
:100A7B00088583118582108008858311858210D2A9
:100A8B00AFC8F0A3E9F0A3EAF0A3EBF0A37908E772
:100A9B0009F0A3D8FAECF0A3EDF0A3EEF0A3EFF07E
:100AAB00A3D0E0F0A3D0E0F0A3D0E0F0A3E520F0DA
:100ABB00A3E5F0F0A322851183851082E0C0E0A3AB
:100ACB00E0F9A3E0FAA3E0FBA37808E0F608A3DFC4
:100ADB00FAE0FCA3E0FDA3E0FEA3E0FFA3E0C0E08F
:100AEB00A3E0C0E0A3E0F5D0A3E0F520A3E0A3F5DD
:100AFB00F010AF08858311858210800885831185DE
:100B0B008210D2AFD082D083D0E0F8D0E032C0E0F8
:100B1B0074F2120A6275C000900200E0F8A3E0F9CB
:100B2B00E82401FAE93400FB900200EAF0A3EBF0B1
:100B3B00C3E894F6E9940040179002007400F0A308
:100B4B007400F0D2F0A29030F001B392901209AA87
:100B5B007F01020AC1801C78087907E8FCE9FDECEB
:100B6B0024FFF8ED34FFF9EC4D70F0EA24FFFAEBBB
:100B7B0034FFFBEA4B70E00200D378087400D2809C
:100B8B0078008009D293D292E9C333F908E8C39471
:100B9B0008500BC29274805970EAC29380E802002D
:100BAB00D378087400C28078008009D293D292E97E
:100BBB00C333F908E8C39408500BC2927480597080
:100BCB00EAC29380E80200D374F71209B0E9FEEA97
:100BDB00FF74B02FF912096EEEC4540F4410F912C2
:100BEB00096E740F5E4401F912096E7F01020A1C33
:100BFB0074F71209B0E9FE750800800EEEF91209C0
:100C0B00680FEFC3948040F40508E508C3940850BF
:100C1B001674B02508F912096E790112096E791054
:100C2B0012096E7F0080DB7F01020A1C74F7120928
:100C3B00B07F00800D79001209680EEEC3948040DE
:100C4B00F40FEFC39408501574B02FF912096E7995
:100C5B000112096E791012096E7E0080DE7F01028F
:100C6B000A1CC082C08353F3FE43FD0153F473434C
:100C7B00FE8CD292C2977A327B00120962D297799C
:100C8B00AE12096E790012096E791012096E794055
:100C9B0012096E798112096E79CF12096E79A11240
:100CAB00096E79C812096E79A612096E79A8120914
:100CBB006E793F12096E79D312096E790012096EA3
:100CCB0079D512096E798012096E79D912096E796C
:100CDB00F112096E79DA12096E791212096E79DB4B
:100CEB0012096E794012096E792012096E7902127F
:100CFB00096E798D12096E791412096E79A4120995
:100D0B006E79A612096E79AF12096E79FF12097A04
:100D1B007A007900120974D083D0820200D374F068
:100D2B001209B0E9FEEAFF8C0E8D0F750C007508E9
:100D3B00007509008047E50CA80C7900E875F010E8
:100D4B00A4C8AAF075F000A42AFA75F010E9A42A39
:100D5B00F985080A750B00E8250AF8E9350BF974D3
:100D6B008E28F582740439F583E0F91209680508B9
:100D7B00E508C3940840BF74082EFE050985090ACF
:100D8B00750B00E50E250AF582E50F350BF583E0B3
:100D9B00607C85090A750B00E50E250AF582E50FC7
:100DAB00350BF583E024E0F50CEEC3947940037E1C
:100DBB00000FEFFAEEF9120974750800803AE50C92
:100DCB00A80C7900E875F010A4C8AAF075F000A47F
:100DDB002AFA75F010E9A42AF985080A750B00E8C0
:100DEB00250AF8E9350BF9748628F582740439F570
:100DFB0083E0F91209680508E508C3940840BF743D
:100E0B00012FFAEEF9120974750800020D7B7F08A9
:100E1B00020A1C74F41209B089088A0A8B0B750933
:100E2B0000E50BAE0B7F00EE75F020A4CEA8F0759D
:100E3B00F000A428F875F020EFA428FFAA0AA9084F
:100E4B00120974750900801974062EF58274023F1D
:100E5B00F583E0F9120968EE2401FEEF3400FF057B
:100E6B0009E509C3941040E07401250AFAA9081298
:100E7B000974750900801974062EF58274023FF50A
:100E8B0083E0F9120968EE2401FEEF3400FF050937
:100E9B00E509C3941040E07F04020A1C74F71209A1
:100EAB00B07E007F007E007F008017EEFB7A00751E
:100EBB00F010EE2402A4F9120992EE2401FEEF3495
:100ECB0000FFC3EE9404EF9400A2D265D03340DB55
:100EDB007E007F008019EE2404FB7A0275F010EE81
:100EEB00A42408F9120992EE2401FEEF3400FFC38B
:100EFB00EE9407EF9400A2D265D03340D97F010264
:100F0B000A1C43FE01D2900200D343CB08D2BB4351
:100F1B00CBE053CBFC43CB10D2AF0200D3C082C08B
:100F2B0083A290E433C3940140167C027D027A05C0
:100F3B00791012098C7B0F7A05792812099280148B
:100F4B007C027D027A05791012098C7B0E7A057969
:100F5B0028120992D083D0820200D312099E120963
:0F0F6B00A41209861209801209981209AA80FEA1
:04000005000000BB3C
:00000001FF
