:020000040000FA
:0300000002007B80
:10002B0002038400000080FB1200ABB90003020046
:10003B0065900200AA82AB839000AE7809790180AB
:10004B0015E493A3AC82AD838A828B83F0A3AA823F
:10005B00AB838C828D83D8E9D9E7758202758305D2
:10006B00740012008D75822E758300740012008D42
:10007B0075D0007581BF751000751102759F000258
:10008B000033C09FF59FE473D09F22D083D082C0F2
:10009B009FE493C0E0740193C0E0740293F59F2238
:1000AB0079012200000000008000001200969703E7
:1000BB0000120096C60300120096CE0300120096A3
:1000CB00E20300120096F40300E066701008A3E050
:1000DB0066700A08A3E066700408A3E066220808AD
:1000EB0008EAC0E0EBC0E086F0E7A4FA180986F056
:1000FB00E7A42AFA180986F0E7A42AFA180986F069
:10010B00E7A42AFA1986F0E7A4FBE5F02AFA190806
:10011B0086F0E7A42BFBE5F03AFA190886F0E7A482
:10012B002BFBE5F03AFA18180986F0E7A4C5F02B7B
:10013B00FBE43AFA1908E7C5F0C6A426F6E5F03B4E
:10014B00FBE43AFA1886F0E7A4F6E5F00826F6E4A5
:10015B003B08F6E43A08F6D0E0FBD0E0FA22C6F40E
:10016B00C608C6F4C608C6F4C608C6F4C62260168E
:10017B00080808C6C313C618C613C618C613C61874
:10018B00C613C6D5E0EA22700908080822601618C3
:10019B001818C6C333C608C633C608C633C608C646
:1001AB0033C6D5E0EA22E026F008A3E036F008A338
:1001BB00E036F008A3E036F022E0F608A3E0F608FC
:1001CB00A3E0F608A3E0F622E0FAA3E0FBA3E0FC31
:1001DB00A3E0FD22EAF0A3EBF0A3ECF0A3EDF022F9
:1001EB00251010AF08F510400215118008F51040CE
:1001FB00021511D2AF22C0D0251010AF08F5105048
:10020B000205118008F51050020511D2AFD0D02293
:10021B002510C582C0E0E51134FFC583C0E0E510B1
:10022B00C3958224F810AF0885831185821080084E
:10023B00858311858210D2AFCEF0A3E520F0A37891
:10024B0008E608F0A3DEFAEFF0A3E58124FAF8E65E
:10025B0008F0A3E608F0A3E608F0A30808E608F008
:10026B00A3E608F0A315811581D0E0FED0E0F815C8
:10027B008115811581E8C0E0EEC0E02285118385F0
:10028B001082E0A3FEE0A3F5207808E0A3F608DFD8
:10029B00FAE0A3FFE0A3C0E0E0A3C0E0E0A3C0E06E
:1002AB00E0A3C0E0E0A3C0E010AF08858210858317
:1002BB00118008858210858311D2AFD083D0820242
:1002CB000093C0D02510C582C0E0E51134FFC58373
:1002DB00C0E0E510C3958224F310AF088583118528
:1002EB0082108008858311858210D2AFC8F0A3E9F4
:1002FB00F0A3EAF0A3EBF0A37908E709F0A3D8FA8F
:10030B00ECF0A3EDF0A3EEF0A3EFF0A3D0E0F0A39D
:10031B00D0E0F0A3D0E0F0A3E520F0A3E5F0F0A34C
:10032B0022851183851082E0C0E0A3E0F9A3E0FAF7
:10033B00A3E0FBA37808E0F608A3DFFAE0FCA3E058
:10034B00FDA3E0FEA3E0FFA3E0C0E0A3E0C0E0A3B9
:10035B00E0F5D0A3E0F520A3E0A3F5F010AF0885FE
:10036B0083118582108008858311858210D2AFD0CE
:10037B0082D083D0E0F8D0E032C0E074F21202CD2C
:10038B00C2C779041200C27F0102032C7C007D00DE
:10039B008019E82401F8E93400F9C3E89417E994CB
:1003AB000240EFEC2401FCED3400FDC3EC9AED9B15
:1003BB0050067800790080E202009375FE03D2901C
:1003CB00020093E9C394045008E942BE758701808B
:1003DB000375870002009375970075960F75950F3F
:1003EB00D2AFD2ADC2C702009374F012021B74FCE1
:1003FB001201EB8A088B099002001201D38510823F
:10040B008511831201DF851082851183E595F879BB
:10041B0000F4F50CE9F4F50DE50D3395E0F50EF56B
:10042B000F780C1200D46004D2F08002C2F0A2F05C
:10043B00E433F8790085108285118385960CE4F5F9
:10044B000DF50EF50F780C1201697408780C12017A
:10045B0092780C1200D46004D2F08002C2F0A2F0A9
:10046B00E433F8790085108285118385970CE4F5C8
:10047B000DF50EF50F780C1201697410780C120142
:10048B0092780C1200D46004D2F08002C2F0A2F079
:10049B00E433F87900E4F50AF50B900204780C12BA
:1004AB0001C47808790C1200E985108285118378D4
:1004BB00081201B185108285118378081201C4746A
:1004CB00107808120179E508F5978510828511835C
:1004DB0078081201C4E4E509F508E508F5968510DE
:1004EB008285118378081201C4E508F5957404120E
:1004FB0002017F080202877E001200BC1200C88036
:10050B002ED2F0A29030F001B392907AF47B0112CC
:10051B0000B60EEEC3940640E87A057B001200CEBF
:10052B0079021200C2D2F0A29130F001B392917E07
:03053B000080E05D
:040000050000007B7C
:00000001FF
