:020000040000FA
:0300000002007B80
:10002B0002037200000080FB1200ABB90003020058
:10003B0065900200AA82AB839000AE7809790180AB
:10004B0015E493A3AC82AD838A828B83F0A3AA823F
:10005B00AB838C828D83D8E9D9E77582AE75830427
:10006B00740012008D75822E758300740012008D42
:10007B0075D0007581BF751000751102759F000258
:10008B000033C09FF59FE473D09F22D083D082C0F2
:10009B009FE493C0E0740193C0E0740293F59F2238
:1000AB007901220000000000400000120096850339
:1000BB0000120096B40300120096BC0300120096C7
:1000CB00D00300120096E20300080808EAC0E0EB38
:1000DB00C0E086F0E7A4FA180986F0E7A42AFA181C
:1000EB000986F0E7A42AFA180986F0E7A42AFA1978
:1000FB0086F0E7A4FBE5F02AFA190886F0E7A42BB3
:10010B00FBE5F03AFA190886F0E7A42BFBE5F03A89
:10011B00FA18180986F0E7A4C5F02BFBE43AFA1994
:10012B0008E7C5F0C6A426F6E5F03BFBE43AFA185F
:10013B0086F0E7A4F6E5F00826F6E43B08F6E43A89
:10014B0008F6D0E0FBD0E0FA226016080808C6C318
:10015B0013C618C613C618C613C618C613C6D5E0E1
:10016B00EA227009080808226016181818C6C3334B
:10017B00C608C633C608C633C608C633C6D5E0EABA
:10018B0022E026F008A3E036F008A3E036F008A33F
:10019B00E036F022E046F008A3E046F008A3E04684
:1001AB00F008A3E046F022E0F608A3E0F608A3E08F
:1001BB00F608A3E0F622E0FAA3E0FBA3E0FCA3E041
:1001CB00FD22EAF0A3EBF0A3ECF0A3EDF022251057
:1001DB0010AF08F510400215118008F510400215FC
:1001EB0011D2AF22C0D0251010AF08F51050020568
:1001FB00118008F51050020511D2AFD0D022251076
:10020B00C582C0E0E51134FFC583C0E0E510C3959E
:10021B008224F810AF0885831185821080088583AE
:10022B0011858210D2AFCEF0A3E520F0A37808E6BB
:10023B0008F0A3DEFAEFF0A3E58124FAF8E608F064
:10024B00A3E608F0A3E608F0A30808E608F0A3E687
:10025B0008F0A315811581D0E0FED0E0F8158115CB
:10026B00811581E8C0E0EEC0E02285118385108204
:10027B00E0A3FEE0A3F5207808E0A3F608DFFAE0A0
:10028B00A3FFE0A3C0E0E0A3C0E0E0A3C0E0E0A3D5
:10029B00C0E0E0A3C0E010AF088582108583118019
:1002AB0008858210858311D2AFD083D08202009350
:1002BB00C0D02510C582C0E0E51134FFC583C0E076
:1002CB00E510C3958224F310AF0885831185821046
:1002DB008008858311858210D2AFC8F0A3E9F0A303
:1002EB00EAF0A3EBF0A37908E709F0A3D8FAECF056
:1002FB00A3EDF0A3EEF0A3EFF0A3D0E0F0A3D0E0DA
:10030B00F0A3D0E0F0A3E520F0A3E5F0F0A3228565
:10031B001183851082E0C0E0A3E0F9A3E0FAA3E02B
:10032B00FBA37808E0F608A3DFFAE0FCA3E0FDA34B
:10033B00E0FEA3E0FFA3E0C0E0A3E0C0E0A3E0F594
:10034B00D0A3E0F520A3E0A3F5F010AF088583114F
:10035B008582108008858311858210D2AFD082D020
:10036B0083D0E0F8D0E032C0E074F21202BBC2C717
:10037B0079041200C27F0102031A7C007D008019F0
:10038B00E82401F8E93400F9C3E89417E994024032
:10039B00EFEC2401FCED3400FDC3EC9AED9B500611
:1003AB007800790080E202009343FE03D2900200B2
:1003BB0093E9C394045008E942BE75870180037525
:1003CB00870002009375970075960F75950FD2AF46
:1003DB00D2ADC2C702009374F012020974FC120171
:1003EB00D98A088B099002001201C18510828511F0
:1003FB00831201CD85950CE4F50DF50EF50F8510E7
:10040B0082851183780C12019F85960CE4F50DF50E
:10041B000EF50F7408780C12016D8510828511830F
:10042B00780C12019F85970CE4F50DF50EF50F7402
:10043B0010780C12016D851082851183780C1201D6
:10044B009FE4F50AF50B900204780C1201B27808C0
:10045B00790C1200D4851082851183780812018CD7
:10046B0085108285118378081201B27410780812F6
:10047B000154E508F59785108285118378081201E0
:10048B00B2E4E509F508E508F59685108285118338
:10049B0078081201B2E508F59574041201EF7F0894
:1004AB000202757E001200BC1200C8802ED2F0A290
:1004BB009030F001B392907AF47B011200B60EEEFD
:1004CB00C3940640E87A057B001200CE7902120035
:0F04DB00C2D2F0A29130F001B392917E0080E086
:040000050000007B7C
:00000001FF
