:020000040000FA
:1000000002003700000080FB120061B9000302000B
:1000100021E4900001780279018002F0A3D8FCD994
:10002000FA75823775830174001200437582037577
:100030008300740012004375D0007581BF759F0066
:10004000020008C09FF59FE473D09F22D083D08226
:10005000C09FE493C0E0740193C0E0740293F59FE5
:100060002279012212004C7C000012004CE80000B2
:1000700012004CF4000012004C03010078007900DB
:100080008008E82401F8E93400F9C3E89AE99B40C4
:10009000F1780079008008E82401F8E93400F9C318
:1000A000E89AE99B40F1780079008008E82401F89B
:1000B000E93400F9C3E89AE99B40F17800790080BF
:1000C00008E82401F8E93400F9C3E89AE99B40F113
:1000D000780079008008E82401F8E93400F9C3E8E1
:1000E0009AE99B40F102004953F3FC53FDFC438F16
:1000F0000302004943FE1343FD10D290D291D284F3
:10010000020049C082C083A2815023A2A0501F7A5E
:10011000647B00120064A2814008A28140FC790146
:10012000800EA2A04008A2A040FC790280027900C3
:10013000D083D08202004912007012006A12007649
:10014000E9900001F0900001E064017033D2F0A268
:100150008430F001B392847A507BC3120064D2F0F1
:10016000A29130F001B392917A507BC3120064D215
:10017000F0A29030F001B392907A507BC3120064E9
:10018000900001E0640270B5D2F0A29130F001B3AA
:0B01900092917A507BC312006480A2A1
:0400000500000037C0
:00000001FF
