:020000040000FA
:030000000200A259
:10006B0002019E00000080FB1200D2B900030200C7
:10007B008CE4900200780379018002F0A3D8FCD9BC
:10008B00FA75823275830374001200B475826E7533
:10009B00830074001200B475D0007581BF75100019
:1000AB00751102759F00020073C09FF59FE473D01A
:1000BB009F22D083D082C09FE493C0E0740193C091
:1000CB00E0740293F59F227901221200BDD4010046
:1000DB001200BD1203001200BD250300C0D0251075
:1000EB00C582C0E0E51134FFC583C0E0E510C395C0
:1000FB008224F310AF0885831185821080088583D5
:10010B0011858210D2AFC8F0A3E9F0A3EAF0A3EBFC
:10011B00F0A37908E709F0A3D8FAECF0A3EDF0A36C
:10012B00EEF0A3EFF0A3D0E0F0A3D0E0F0A3D0E08B
:10013B00F0A3E520F0A3E5F0F0A322851183851051
:10014B0082E0C0E0A3E0F9A3E0FAA3E0FBA3780808
:10015B00E0F608A3DFFAE0FCA3E0FDA3E0FEA3E0DA
:10016B00FFA3E0C0E0A3E0C0E0A3E0F5D0A3E0F57F
:10017B0020A3E0A3F5F010AF0885831185821080D2
:10018B0008858311858210D2AFD082D083D0E0F85E
:10019B00D0E032C0E074F21200E7E589C39401406D
:1001AB00217589007A647B001200D5E58970137A7A
:1001BB00647B001200D5900200E02401F0A3E03430
:1001CB0000F0C2C57F01020146780079008008E883
:1001DB002401F8E93400F9C3E89AE99B40F178006F
:1001EB0079008008E82401F8E93400F9C3E89AE9BA
:1001FB009B40F1780079008008E82401F8E934008D
:10020B00F9C3E89AE99B40F1780079008008E8246B
:10021B0001F8E93400F9C3E89AE99B40F1780079D9
:10022B00008008E82401F8E93400F9C3E89AE99B57
:10023B0040F1780079008008E82401F8E93400F9EE
:10024B00C3E89AE99B40F1780079008008E8240123
:10025B00F8E93400F9C3E89AE99B40F1780079009A
:10026B008008E82401F8E93400F9C3E89AE99B40D7
:10027B00F1780079008008E82401F8E93400F9C32B
:10028B00E89AE99B40F1780079008008E82401F8AE
:10029B00E93400F9C3E89AE99B40F17800790080D2
:1002AB0008E82401F8E93400F9C3E89AE99B40F126
:1002BB00780079008008E82401F8E93400F9C3E8F4
:1002CB009AE99B40F1780079008008E82401F8E96D
:1002DB003400F9C3E89AE99B40F178007900800873
:1002EB00E82401F8E93400F9C3E89AE99B40F17876
:1002FB000079008008E82401F8E93400F9C3E89A92
:10030B00E99B40F10200BA438F0243AB02438C01DD
:10031B00D2AFD2BD8589890200BA43FE0343FD10DB
:10032B00D290D2840200BA1200E11200DB900200DC
:10033B00E064017004A3E0640070F2D2F0A2843098
:10034B00F001B392847A307B751200D5D2F0A29073
:10035B0030F001B392907A307B751200D590020089
:09036B007400F0A37400F080C4DA
:04000005000000A255
:00000001FF
